{"abi":[{"type":"constructor","inputs":[],"stateMutability":"nonpayable"},{"type":"function","name":"DEFAULT_ADMIN_ROLE","inputs":[],"outputs":[{"name":"","type":"bytes32","internalType":"bytes32"}],"stateMutability":"view"},{"type":"function","name":"ORACLE_ROLE","inputs":[],"outputs":[{"name":"","type":"bytes32","internalType":"bytes32"}],"stateMutability":"view"},{"type":"function","name":"getData","inputs":[{"name":"id","type":"bytes32","internalType":"bytes32"}],"outputs":[{"name":"","type":"string","internalType":"string"}],"stateMutability":"view"},{"type":"function","name":"getNonce","inputs":[],"outputs":[{"name":"","type":"uint256","internalType":"uint256"}],"stateMutability":"view"},{"type":"function","name":"getRoleAdmin","inputs":[{"name":"role","type":"bytes32","internalType":"bytes32"}],"outputs":[{"name":"","type":"bytes32","internalType":"bytes32"}],"stateMutability":"view"},{"type":"function","name":"grantRole","inputs":[{"name":"role","type":"bytes32","internalType":"bytes32"},{"name":"account","type":"address","internalType":"address"}],"outputs":[],"stateMutability":"nonpayable"},{"type":"function","name":"hasRole","inputs":[{"name":"role","type":"bytes32","internalType":"bytes32"},{"name":"account","type":"address","internalType":"address"}],"outputs":[{"name":"","type":"bool","internalType":"bool"}],"stateMutability":"view"},{"type":"function","name":"renounceRole","inputs":[{"name":"role","type":"bytes32","internalType":"bytes32"},{"name":"callerConfirmation","type":"address","internalType":"address"}],"outputs":[],"stateMutability":"nonpayable"},{"type":"function","name":"revokeRole","inputs":[{"name":"role","type":"bytes32","internalType":"bytes32"},{"name":"account","type":"address","internalType":"address"}],"outputs":[],"stateMutability":"nonpayable"},{"type":"function","name":"setData","inputs":[{"name":"data","type":"string","internalType":"string"}],"outputs":[],"stateMutability":"nonpayable"},{"type":"function","name":"supportsInterface","inputs":[{"name":"interfaceId","type":"bytes4","internalType":"bytes4"}],"outputs":[{"name":"","type":"bool","internalType":"bool"}],"stateMutability":"view"},{"type":"event","name":"RoleAdminChanged","inputs":[{"name":"role","type":"bytes32","indexed":true,"internalType":"bytes32"},{"name":"previousAdminRole","type":"bytes32","indexed":true,"internalType":"bytes32"},{"name":"newAdminRole","type":"bytes32","indexed":true,"internalType":"bytes32"}],"anonymous":false},{"type":"event","name":"RoleGranted","inputs":[{"name":"role","type":"bytes32","indexed":true,"internalType":"bytes32"},{"name":"account","type":"address","indexed":true,"internalType":"address"},{"name":"sender","type":"address","indexed":true,"internalType":"address"}],"anonymous":false},{"type":"event","name":"RoleRevoked","inputs":[{"name":"role","type":"bytes32","indexed":true,"internalType":"bytes32"},{"name":"account","type":"address","indexed":true,"internalType":"address"},{"name":"sender","type":"address","indexed":true,"internalType":"address"}],"anonymous":false},{"type":"event","name":"UpdatedData","inputs":[{"name":"data","type":"string","indexed":false,"internalType":"string"}],"anonymous":false},{"type":"error","name":"AccessControlBadConfirmation","inputs":[]},{"type":"error","name":"AccessControlUnauthorizedAccount","inputs":[{"name":"account","type":"address","internalType":"address"},{"name":"neededRole","type":"bytes32","internalType":"bytes32"}]}],"bytecode":{"object":"0x6080604052600060025534801561001557600080fd5b506100296000801b3361006060201b60201c565b5061005a7f68e79a7bf1e0bc45d0a330c573bc367f9cf464fd326078812f301165fbda4ef13361006060201b60201c565b506101cf565b6000610072838361015d60201b60201c565b61015257600160008085815260200190815260200160002060000160008473ffffffffffffffffffffffffffffffffffffffff1673ffffffffffffffffffffffffffffffffffffffff16815260200190815260200160002060006101000a81548160ff0219169083151502179055506100ef6101c760201b60201c565b73ffffffffffffffffffffffffffffffffffffffff168273ffffffffffffffffffffffffffffffffffffffff16847f2f8788117e7eff1d82e926ec794901d17c78024a50270940304540a733656f0d60405160405180910390a460019050610157565b600090505b92915050565b600080600084815260200190815260200160002060000160008373ffffffffffffffffffffffffffffffffffffffff1673ffffffffffffffffffffffffffffffffffffffff16815260200190815260200160002060009054906101000a900460ff16905092915050565b600033905090565b6111f5806101de6000396000f3fe608060405234801561001057600080fd5b50600436106100a95760003560e01c806347064d6a1161007157806347064d6a1461016457806354f6127f1461018057806391d14854146101b0578063a217fddf146101e0578063d087d288146101fe578063d547741f1461021c576100a9565b806301ffc9a7146100ae57806307e2cea5146100de578063248a9ca3146100fc5780632f2ff15d1461012c57806336568abe14610148575b600080fd5b6100c860048036038101906100c39190610981565b610238565b6040516100d591906109c9565b60405180910390f35b6100e66102b2565b6040516100f391906109fd565b60405180910390f35b61011660048036038101906101119190610a44565b6102d6565b60405161012391906109fd565b60405180910390f35b61014660048036038101906101419190610acf565b6102f5565b005b610162600480360381019061015d9190610acf565b610317565b005b61017e60048036038101906101799190610c55565b610392565b005b61019a60048036038101906101959190610a44565b610476565b6040516101a79190610d1d565b60405180910390f35b6101ca60048036038101906101c59190610acf565b610579565b6040516101d791906109c9565b60405180910390f35b6101e86105e3565b6040516101f591906109fd565b60405180910390f35b6102066105ea565b6040516102139190610d58565b60405180910390f35b61023660048036038101906102319190610acf565b6105f4565b005b60007f7965db0b000000000000000000000000000000000000000000000000000000007bffffffffffffffffffffffffffffffffffffffffffffffffffffffff1916827bffffffffffffffffffffffffffffffffffffffffffffffffffffffff191614806102ab57506102aa82610616565b5b9050919050565b7f68e79a7bf1e0bc45d0a330c573bc367f9cf464fd326078812f301165fbda4ef181565b6000806000838152602001908152602001600020600101549050919050565b6102fe826102d6565b61030781610680565b6103118383610694565b50505050565b61031f610785565b73ffffffffffffffffffffffffffffffffffffffff168173ffffffffffffffffffffffffffffffffffffffff1614610383576040517f6697b23200000000000000000000000000000000000000000000000000000000815260040160405180910390fd5b61038d828261078d565b505050565b7f68e79a7bf1e0bc45d0a330c573bc367f9cf464fd326078812f301165fbda4ef16103bc81610680565b6000826040516020016103cf9190610daf565b6040516020818303038152906040528051906020012090506040518060400160405280828152602001848152506001600083815260200190815260200160002060008201518160000155602082015181600101908161042e9190610fd2565b5090505061043a61087f565b7f7fb6925609a736d6fa6975358b59af142d21c6d65218e8e6624acbce324738ad836040516104699190610d1d565b60405180910390a1505050565b60606000801b6001600084815260200190815260200160002060000154036104d3576040517f08c379a00000000000000000000000000000000000000000000000000000000081526004016104ca906110f0565b60405180910390fd5b6001600083815260200190815260200160002060010180546104f490610df5565b80601f016020809104026020016040519081016040528092919081815260200182805461052090610df5565b801561056d5780601f106105425761010080835404028352916020019161056d565b820191906000526020600020905b81548152906001019060200180831161055057829003601f168201915b50505050509050919050565b600080600084815260200190815260200160002060000160008373ffffffffffffffffffffffffffffffffffffffff1673ffffffffffffffffffffffffffffffffffffffff16815260200190815260200160002060009054906101000a900460ff16905092915050565b6000801b81565b6000600254905090565b6105fd826102d6565b61060681610680565b610610838361078d565b50505050565b60007f01ffc9a7000000000000000000000000000000000000000000000000000000007bffffffffffffffffffffffffffffffffffffffffffffffffffffffff1916827bffffffffffffffffffffffffffffffffffffffffffffffffffffffff1916149050919050565b6106918161068c610785565b6108c4565b50565b60006106a08383610579565b61077a57600160008085815260200190815260200160002060000160008473ffffffffffffffffffffffffffffffffffffffff1673ffffffffffffffffffffffffffffffffffffffff16815260200190815260200160002060006101000a81548160ff021916908315150217905550610717610785565b73ffffffffffffffffffffffffffffffffffffffff168273ffffffffffffffffffffffffffffffffffffffff16847f2f8788117e7eff1d82e926ec794901d17c78024a50270940304540a733656f0d60405160405180910390a46001905061077f565b600090505b92915050565b600033905090565b60006107998383610579565b1561087457600080600085815260200190815260200160002060000160008473ffffffffffffffffffffffffffffffffffffffff1673ffffffffffffffffffffffffffffffffffffffff16815260200190815260200160002060006101000a81548160ff021916908315150217905550610811610785565b73ffffffffffffffffffffffffffffffffffffffff168273ffffffffffffffffffffffffffffffffffffffff16847ff6391f5c32d9c69d2a47ea670b442974b53935d1edc7fd64eb21e047a839171b60405160405180910390a460019050610879565b600090505b92915050565b7f68e79a7bf1e0bc45d0a330c573bc367f9cf464fd326078812f301165fbda4ef16108a981610680565b600260008154809291906108bc9061113f565b919050555050565b6108ce8282610579565b6109115780826040517fe2517d3f000000000000000000000000000000000000000000000000000000008152600401610908929190611196565b60405180910390fd5b5050565b6000604051905090565b600080fd5b600080fd5b60007fffffffff0000000000000000000000000000000000000000000000000000000082169050919050565b61095e81610929565b811461096957600080fd5b50565b60008135905061097b81610955565b92915050565b6000602082840312156109975761099661091f565b5b60006109a58482850161096c565b91505092915050565b60008115159050919050565b6109c3816109ae565b82525050565b60006020820190506109de60008301846109ba565b92915050565b6000819050919050565b6109f7816109e4565b82525050565b6000602082019050610a1260008301846109ee565b92915050565b610a21816109e4565b8114610a2c57600080fd5b50565b600081359050610a3e81610a18565b92915050565b600060208284031215610a5a57610a5961091f565b5b6000610a6884828501610a2f565b91505092915050565b600073ffffffffffffffffffffffffffffffffffffffff82169050919050565b6000610a9c82610a71565b9050919050565b610aac81610a91565b8114610ab757600080fd5b50565b600081359050610ac981610aa3565b92915050565b60008060408385031215610ae657610ae561091f565b5b6000610af485828601610a2f565b9250506020610b0585828601610aba565b9150509250929050565b600080fd5b600080fd5b6000601f19601f8301169050919050565b7f4e487b7100000000000000000000000000000000000000000000000000000000600052604160045260246000fd5b610b6282610b19565b810181811067ffffffffffffffff82111715610b8157610b80610b2a565b5b80604052505050565b6000610b94610915565b9050610ba08282610b59565b919050565b600067ffffffffffffffff821115610bc057610bbf610b2a565b5b610bc982610b19565b9050602081019050919050565b82818337600083830152505050565b6000610bf8610bf384610ba5565b610b8a565b905082815260208101848484011115610c1457610c13610b14565b5b610c1f848285610bd6565b509392505050565b600082601f830112610c3c57610c3b610b0f565b5b8135610c4c848260208601610be5565b91505092915050565b600060208284031215610c6b57610c6a61091f565b5b600082013567ffffffffffffffff811115610c8957610c88610924565b5b610c9584828501610c27565b91505092915050565b600081519050919050565b600082825260208201905092915050565b60005b83811015610cd8578082015181840152602081019050610cbd565b60008484015250505050565b6000610cef82610c9e565b610cf98185610ca9565b9350610d09818560208601610cba565b610d1281610b19565b840191505092915050565b60006020820190508181036000830152610d378184610ce4565b905092915050565b6000819050919050565b610d5281610d3f565b82525050565b6000602082019050610d6d6000830184610d49565b92915050565b600081905092915050565b6000610d8982610c9e565b610d938185610d73565b9350610da3818560208601610cba565b80840191505092915050565b6000610dbb8284610d7e565b915081905092915050565b7f4e487b7100000000000000000000000000000000000000000000000000000000600052602260045260246000fd5b60006002820490506001821680610e0d57607f821691505b602082108103610e2057610e1f610dc6565b5b50919050565b60008190508160005260206000209050919050565b60006020601f8301049050919050565b600082821b905092915050565b600060088302610e887fffffffffffffffffffffffffffffffffffffffffffffffffffffffffffffffff82610e4b565b610e928683610e4b565b95508019841693508086168417925050509392505050565b6000819050919050565b6000610ecf610eca610ec584610d3f565b610eaa565b610d3f565b9050919050565b6000819050919050565b610ee983610eb4565b610efd610ef582610ed6565b848454610e58565b825550505050565b600090565b610f12610f05565b610f1d818484610ee0565b505050565b5b81811015610f4157610f36600082610f0a565b600181019050610f23565b5050565b601f821115610f8657610f5781610e26565b610f6084610e3b565b81016020851015610f6f578190505b610f83610f7b85610e3b565b830182610f22565b50505b505050565b600082821c905092915050565b6000610fa960001984600802610f8b565b1980831691505092915050565b6000610fc28383610f98565b9150826002028217905092915050565b610fdb82610c9e565b67ffffffffffffffff811115610ff457610ff3610b2a565b5b610ffe8254610df5565b611009828285610f45565b600060209050601f83116001811461103c576000841561102a578287015190505b6110348582610fb6565b86555061109c565b601f19841661104a86610e26565b60005b828110156110725784890151825560018201915060208501945060208101905061104d565b8683101561108f578489015161108b601f891682610f98565b8355505b6001600288020188555050505b505050505050565b7f44617461206e6f7420666f756e64000000000000000000000000000000000000600082015250565b60006110da600e83610ca9565b91506110e5826110a4565b602082019050919050565b60006020820190508181036000830152611109816110cd565b9050919050565b7f4e487b7100000000000000000000000000000000000000000000000000000000600052601160045260246000fd5b600061114a82610d3f565b91507fffffffffffffffffffffffffffffffffffffffffffffffffffffffffffffffff820361117c5761117b611110565b5b600182019050919050565b61119081610a91565b82525050565b60006040820190506111ab6000830185611187565b6111b860208301846109ee565b939250505056fea26469706673582212202b197ba7ab0c9ba78ab44734f63c80616d17aa0accf9307ca77cd23b0d5e71ba64736f6c634300081d0033","linkReferences":{}},"methodIdentifiers":{"DEFAULT_ADMIN_ROLE()":"a217fddf","ORACLE_ROLE()":"07e2cea5","getData(bytes32)":"54f6127f","getNonce()":"d087d288","getRoleAdmin(bytes32)":"248a9ca3","grantRole(bytes32,address)":"2f2ff15d","hasRole(bytes32,address)":"91d14854","renounceRole(bytes32,address)":"36568abe","revokeRole(bytes32,address)":"d547741f","setData(string)":"47064d6a","supportsInterface(bytes4)":"01ffc9a7"},"id":16}