{"abi":[{"type":"constructor","inputs":[{"name":"_owner","type":"address","internalType":"address"}],"stateMutability":"nonpayable"},{"type":"function","name":"BRIDGE_ROLE","inputs":[],"outputs":[{"name":"","type":"bytes32","internalType":"bytes32"}],"stateMutability":"view"},{"type":"function","name":"DEFAULT_ADMIN_ROLE","inputs":[],"outputs":[{"name":"","type":"bytes32","internalType":"bytes32"}],"stateMutability":"view"},{"type":"function","name":"OWNER_ROLE","inputs":[],"outputs":[{"name":"","type":"bytes32","internalType":"bytes32"}],"stateMutability":"view"},{"type":"function","name":"allowance","inputs":[{"name":"owner","type":"address","internalType":"address"},{"name":"spender","type":"address","internalType":"address"}],"outputs":[{"name":"","type":"uint256","internalType":"uint256"}],"stateMutability":"view"},{"type":"function","name":"approve","inputs":[{"name":"spender","type":"address","internalType":"address"},{"name":"value","type":"uint256","internalType":"uint256"}],"outputs":[{"name":"","type":"bool","internalType":"bool"}],"stateMutability":"nonpayable"},{"type":"function","name":"balanceOf","inputs":[{"name":"account","type":"address","internalType":"address"}],"outputs":[{"name":"","type":"uint256","internalType":"uint256"}],"stateMutability":"view"},{"type":"function","name":"burn","inputs":[{"name":"account","type":"address","internalType":"address"},{"name":"amount","type":"uint256","internalType":"uint256"}],"outputs":[{"name":"success","type":"bool","internalType":"bool"}],"stateMutability":"nonpayable"},{"type":"function","name":"decimals","inputs":[],"outputs":[{"name":"","type":"uint8","internalType":"uint8"}],"stateMutability":"view"},{"type":"function","name":"getRoleAdmin","inputs":[{"name":"role","type":"bytes32","internalType":"bytes32"}],"outputs":[{"name":"","type":"bytes32","internalType":"bytes32"}],"stateMutability":"view"},{"type":"function","name":"giveBridgeRole","inputs":[{"name":"account","type":"address","internalType":"address"}],"outputs":[{"name":"success","type":"bool","internalType":"bool"}],"stateMutability":"nonpayable"},{"type":"function","name":"grantRole","inputs":[{"name":"role","type":"bytes32","internalType":"bytes32"},{"name":"account","type":"address","internalType":"address"}],"outputs":[],"stateMutability":"nonpayable"},{"type":"function","name":"hasRole","inputs":[{"name":"role","type":"bytes32","internalType":"bytes32"},{"name":"account","type":"address","internalType":"address"}],"outputs":[{"name":"","type":"bool","internalType":"bool"}],"stateMutability":"view"},{"type":"function","name":"mint","inputs":[{"name":"account","type":"address","internalType":"address"},{"name":"amount","type":"uint256","internalType":"uint256"}],"outputs":[{"name":"success","type":"bool","internalType":"bool"}],"stateMutability":"nonpayable"},{"type":"function","name":"name","inputs":[],"outputs":[{"name":"","type":"string","internalType":"string"}],"stateMutability":"view"},{"type":"function","name":"renounceRole","inputs":[{"name":"role","type":"bytes32","internalType":"bytes32"},{"name":"callerConfirmation","type":"address","internalType":"address"}],"outputs":[],"stateMutability":"nonpayable"},{"type":"function","name":"revokeRole","inputs":[{"name":"role","type":"bytes32","internalType":"bytes32"},{"name":"account","type":"address","internalType":"address"}],"outputs":[],"stateMutability":"nonpayable"},{"type":"function","name":"supportsInterface","inputs":[{"name":"interfaceId","type":"bytes4","internalType":"bytes4"}],"outputs":[{"name":"","type":"bool","internalType":"bool"}],"stateMutability":"view"},{"type":"function","name":"symbol","inputs":[],"outputs":[{"name":"","type":"string","internalType":"string"}],"stateMutability":"view"},{"type":"function","name":"totalSupply","inputs":[],"outputs":[{"name":"","type":"uint256","internalType":"uint256"}],"stateMutability":"view"},{"type":"function","name":"transfer","inputs":[{"name":"to","type":"address","internalType":"address"},{"name":"value","type":"uint256","internalType":"uint256"}],"outputs":[{"name":"","type":"bool","internalType":"bool"}],"stateMutability":"nonpayable"},{"type":"function","name":"transferFrom","inputs":[{"name":"from","type":"address","internalType":"address"},{"name":"to","type":"address","internalType":"address"},{"name":"value","type":"uint256","internalType":"uint256"}],"outputs":[{"name":"","type":"bool","internalType":"bool"}],"stateMutability":"nonpayable"},{"type":"event","name":"Approval","inputs":[{"name":"owner","type":"address","indexed":true,"internalType":"address"},{"name":"spender","type":"address","indexed":true,"internalType":"address"},{"name":"value","type":"uint256","indexed":false,"internalType":"uint256"}],"anonymous":false},{"type":"event","name":"RoleAdminChanged","inputs":[{"name":"role","type":"bytes32","indexed":true,"internalType":"bytes32"},{"name":"previousAdminRole","type":"bytes32","indexed":true,"internalType":"bytes32"},{"name":"newAdminRole","type":"bytes32","indexed":true,"internalType":"bytes32"}],"anonymous":false},{"type":"event","name":"RoleGranted","inputs":[{"name":"role","type":"bytes32","indexed":true,"internalType":"bytes32"},{"name":"account","type":"address","indexed":true,"internalType":"address"},{"name":"sender","type":"address","indexed":true,"internalType":"address"}],"anonymous":false},{"type":"event","name":"RoleRevoked","inputs":[{"name":"role","type":"bytes32","indexed":true,"internalType":"bytes32"},{"name":"account","type":"address","indexed":true,"internalType":"address"},{"name":"sender","type":"address","indexed":true,"internalType":"address"}],"anonymous":false},{"type":"event","name":"Transfer","inputs":[{"name":"from","type":"address","indexed":true,"internalType":"address"},{"name":"to","type":"address","indexed":true,"internalType":"address"},{"name":"value","type":"uint256","indexed":false,"internalType":"uint256"}],"anonymous":false},{"type":"error","name":"AccessControlBadConfirmation","inputs":[]},{"type":"error","name":"AccessControlUnauthorizedAccount","inputs":[{"name":"account","type":"address","internalType":"address"},{"name":"neededRole","type":"bytes32","internalType":"bytes32"}]},{"type":"error","name":"ERC20InsufficientAllowance","inputs":[{"name":"spender","type":"address","internalType":"address"},{"name":"allowance","type":"uint256","internalType":"uint256"},{"name":"needed","type":"uint256","internalType":"uint256"}]},{"type":"error","name":"ERC20InsufficientBalance","inputs":[{"name":"sender","type":"address","internalType":"address"},{"name":"balance","type":"uint256","internalType":"uint256"},{"name":"needed","type":"uint256","internalType":"uint256"}]},{"type":"error","name":"ERC20InvalidApprover","inputs":[{"name":"approver","type":"address","internalType":"address"}]},{"type":"error","name":"ERC20InvalidReceiver","inputs":[{"name":"receiver","type":"address","internalType":"address"}]},{"type":"error","name":"ERC20InvalidSender","inputs":[{"name":"sender","type":"address","internalType":"address"}]},{"type":"error","name":"ERC20InvalidSpender","inputs":[{"name":"spender","type":"address","internalType":"address"}]}],"bytecode":{"object":"0x60806040523480156200001157600080fd5b5060405162001fa838038062001fa8833981810160405281019062000037919062000315565b6040518060400160405280600981526020017f53415450546f6b656e00000000000000000000000000000000000000000000008152506040518060400160405280600481526020017f53415450000000000000000000000000000000000000000000000000000000008152508160049081620000b49190620005c1565b508060059081620000c69190620005c1565b505050620000fb7fb19546dff01e856fb3f010c267a7b1c60363cf8a4664e21cc89c26224620214e826200013660201b60201c565b506200012e7f52ba824bfabc2bcfcdf7f0edbb486ebb05e1836c90e78047efeb949990f72e5f826200013660201b60201c565b5050620006a8565b60006200014a83836200023960201b60201c565b6200022e57600160008085815260200190815260200160002060000160008473ffffffffffffffffffffffffffffffffffffffff1673ffffffffffffffffffffffffffffffffffffffff16815260200190815260200160002060006101000a81548160ff021916908315150217905550620001ca620002a360201b60201c565b73ffffffffffffffffffffffffffffffffffffffff168273ffffffffffffffffffffffffffffffffffffffff16847f2f8788117e7eff1d82e926ec794901d17c78024a50270940304540a733656f0d60405160405180910390a46001905062000233565b600090505b92915050565b600080600084815260200190815260200160002060000160008373ffffffffffffffffffffffffffffffffffffffff1673ffffffffffffffffffffffffffffffffffffffff16815260200190815260200160002060009054906101000a900460ff16905092915050565b600033905090565b600080fd5b600073ffffffffffffffffffffffffffffffffffffffff82169050919050565b6000620002dd82620002b0565b9050919050565b620002ef81620002d0565b8114620002fb57600080fd5b50565b6000815190506200030f81620002e4565b92915050565b6000602082840312156200032e576200032d620002ab565b5b60006200033e84828501620002fe565b91505092915050565b600081519050919050565b7f4e487b7100000000000000000000000000000000000000000000000000000000600052604160045260246000fd5b7f4e487b7100000000000000000000000000000000000000000000000000000000600052602260045260246000fd5b60006002820490506001821680620003c957607f821691505b602082108103620003df57620003de62000381565b5b50919050565b60008190508160005260206000209050919050565b60006020601f8301049050919050565b600082821b905092915050565b600060088302620004497fffffffffffffffffffffffffffffffffffffffffffffffffffffffffffffffff826200040a565b6200045586836200040a565b95508019841693508086168417925050509392505050565b6000819050919050565b6000819050919050565b6000620004a26200049c62000496846200046d565b62000477565b6200046d565b9050919050565b6000819050919050565b620004be8362000481565b620004d6620004cd82620004a9565b84845462000417565b825550505050565b600090565b620004ed620004de565b620004fa818484620004b3565b505050565b5b81811015620005225762000516600082620004e3565b60018101905062000500565b5050565b601f82111562000571576200053b81620003e5565b6200054684620003fa565b8101602085101562000556578190505b6200056e6200056585620003fa565b830182620004ff565b50505b505050565b600082821c905092915050565b6000620005966000198460080262000576565b1980831691505092915050565b6000620005b1838362000583565b9150826002028217905092915050565b620005cc8262000347565b67ffffffffffffffff811115620005e857620005e762000352565b5b620005f48254620003b0565b6200060182828562000526565b600060209050601f83116001811462000639576000841562000624578287015190505b620006308582620005a3565b865550620006a0565b601f1984166200064986620003e5565b60005b8281101562000673578489015182556001820191506020850194506020810190506200064c565b868310156200069357848901516200068f601f89168262000583565b8355505b6001600288020188555050505b505050505050565b6118f080620006b86000396000f3fe608060405234801561001057600080fd5b50600436106101375760003560e01c806370a08231116100b8578063a9059cbb1161007c578063a9059cbb1461038a578063b5bfddea146103ba578063d547741f146103d8578063dd62ed3e146103f4578063e58378bb14610424578063ee38acef1461044257610137565b806370a08231146102be57806391d14854146102ee57806395d89b411461031e5780639dc29fac1461033c578063a217fddf1461036c57610137565b8063248a9ca3116100ff578063248a9ca3146102085780632f2ff15d14610238578063313ce5671461025457806336568abe1461027257806340c10f191461028e57610137565b806301ffc9a71461013c57806306fdde031461016c578063095ea7b31461018a57806318160ddd146101ba57806323b872dd146101d8575b600080fd5b61015660048036038101906101519190611396565b610472565b60405161016391906113de565b60405180910390f35b6101746104ec565b6040516101819190611489565b60405180910390f35b6101a4600480360381019061019f919061153f565b61057e565b6040516101b191906113de565b60405180910390f35b6101c26105a1565b6040516101cf919061158e565b60405180910390f35b6101f260048036038101906101ed91906115a9565b6105ab565b6040516101ff91906113de565b60405180910390f35b610222600480360381019061021d9190611632565b6105da565b60405161022f919061166e565b60405180910390f35b610252600480360381019061024d9190611689565b6105f9565b005b61025c61061b565b60405161026991906116e5565b60405180910390f35b61028c60048036038101906102879190611689565b610624565b005b6102a860048036038101906102a3919061153f565b61069f565b6040516102b591906113de565b60405180910390f35b6102d860048036038101906102d39190611700565b6106e0565b6040516102e5919061158e565b60405180910390f35b61030860048036038101906103039190611689565b610729565b60405161031591906113de565b60405180910390f35b610326610793565b6040516103339190611489565b60405180910390f35b6103566004803603810190610351919061153f565b610825565b60405161036391906113de565b60405180910390f35b610374610866565b604051610381919061166e565b60405180910390f35b6103a4600480360381019061039f919061153f565b61086d565b6040516103b191906113de565b60405180910390f35b6103c2610890565b6040516103cf919061166e565b60405180910390f35b6103f260048036038101906103ed9190611689565b6108b4565b005b61040e6004803603810190610409919061172d565b6108d6565b60405161041b919061158e565b60405180910390f35b61042c61095d565b604051610439919061166e565b60405180910390f35b61045c60048036038101906104579190611700565b610981565b60405161046991906113de565b60405180910390f35b60007f7965db0b000000000000000000000000000000000000000000000000000000007bffffffffffffffffffffffffffffffffffffffffffffffffffffffff1916827bffffffffffffffffffffffffffffffffffffffffffffffffffffffff191614806104e557506104e4826109e2565b5b9050919050565b6060600480546104fb9061179c565b80601f01602080910402602001604051908101604052809291908181526020018280546105279061179c565b80156105745780601f1061054957610100808354040283529160200191610574565b820191906000526020600020905b81548152906001019060200180831161055757829003601f168201915b5050505050905090565b600080610589610a4c565b9050610596818585610a54565b600191505092915050565b6000600354905090565b6000806105b6610a4c565b90506105c3858285610a66565b6105ce858585610afa565b60019150509392505050565b6000806000838152602001908152602001600020600101549050919050565b610602826105da565b61060b81610bee565b6106158383610c02565b50505050565b60006012905090565b61062c610a4c565b73ffffffffffffffffffffffffffffffffffffffff168173ffffffffffffffffffffffffffffffffffffffff1614610690576040517f6697b23200000000000000000000000000000000000000000000000000000000815260040160405180910390fd5b61069a8282610cf3565b505050565b60007f52ba824bfabc2bcfcdf7f0edbb486ebb05e1836c90e78047efeb949990f72e5f6106cb81610bee565b6106d58484610de5565b600191505092915050565b6000600160008373ffffffffffffffffffffffffffffffffffffffff1673ffffffffffffffffffffffffffffffffffffffff168152602001908152602001600020549050919050565b600080600084815260200190815260200160002060000160008373ffffffffffffffffffffffffffffffffffffffff1673ffffffffffffffffffffffffffffffffffffffff16815260200190815260200160002060009054906101000a900460ff16905092915050565b6060600580546107a29061179c565b80601f01602080910402602001604051908101604052809291908181526020018280546107ce9061179c565b801561081b5780601f106107f05761010080835404028352916020019161081b565b820191906000526020600020905b8154815290600101906020018083116107fe57829003601f168201915b5050505050905090565b60007f52ba824bfabc2bcfcdf7f0edbb486ebb05e1836c90e78047efeb949990f72e5f61085181610bee565b61085b8484610e67565b600191505092915050565b6000801b81565b600080610878610a4c565b9050610885818585610afa565b600191505092915050565b7f52ba824bfabc2bcfcdf7f0edbb486ebb05e1836c90e78047efeb949990f72e5f81565b6108bd826105da565b6108c681610bee565b6108d08383610cf3565b50505050565b6000600260008473ffffffffffffffffffffffffffffffffffffffff1673ffffffffffffffffffffffffffffffffffffffff16815260200190815260200160002060008373ffffffffffffffffffffffffffffffffffffffff1673ffffffffffffffffffffffffffffffffffffffff16815260200190815260200160002054905092915050565b7fb19546dff01e856fb3f010c267a7b1c60363cf8a4664e21cc89c26224620214e81565b60007fb19546dff01e856fb3f010c267a7b1c60363cf8a4664e21cc89c26224620214e6109ad81610bee565b6109d77f52ba824bfabc2bcfcdf7f0edbb486ebb05e1836c90e78047efeb949990f72e5f84610c02565b506001915050919050565b60007f01ffc9a7000000000000000000000000000000000000000000000000000000007bffffffffffffffffffffffffffffffffffffffffffffffffffffffff1916827bffffffffffffffffffffffffffffffffffffffffffffffffffffffff1916149050919050565b600033905090565b610a618383836001610ee9565b505050565b6000610a7284846108d6565b90507fffffffffffffffffffffffffffffffffffffffffffffffffffffffffffffffff8114610af45781811015610ae4578281836040517ffb8f41b2000000000000000000000000000000000000000000000000000000008152600401610adb939291906117dc565b60405180910390fd5b610af384848484036000610ee9565b5b50505050565b600073ffffffffffffffffffffffffffffffffffffffff168373ffffffffffffffffffffffffffffffffffffffff1603610b6c5760006040517f96c6fd1e000000000000000000000000000000000000000000000000000000008152600401610b639190611813565b60405180910390fd5b600073ffffffffffffffffffffffffffffffffffffffff168273ffffffffffffffffffffffffffffffffffffffff1603610bde5760006040517fec442f05000000000000000000000000000000000000000000000000000000008152600401610bd59190611813565b60405180910390fd5b610be98383836110c0565b505050565b610bff81610bfa610a4c565b6112e8565b50565b6000610c0e8383610729565b610ce857600160008085815260200190815260200160002060000160008473ffffffffffffffffffffffffffffffffffffffff1673ffffffffffffffffffffffffffffffffffffffff16815260200190815260200160002060006101000a81548160ff021916908315150217905550610c85610a4c565b73ffffffffffffffffffffffffffffffffffffffff168273ffffffffffffffffffffffffffffffffffffffff16847f2f8788117e7eff1d82e926ec794901d17c78024a50270940304540a733656f0d60405160405180910390a460019050610ced565b600090505b92915050565b6000610cff8383610729565b15610dda57600080600085815260200190815260200160002060000160008473ffffffffffffffffffffffffffffffffffffffff1673ffffffffffffffffffffffffffffffffffffffff16815260200190815260200160002060006101000a81548160ff021916908315150217905550610d77610a4c565b73ffffffffffffffffffffffffffffffffffffffff168273ffffffffffffffffffffffffffffffffffffffff16847ff6391f5c32d9c69d2a47ea670b442974b53935d1edc7fd64eb21e047a839171b60405160405180910390a460019050610ddf565b600090505b92915050565b600073ffffffffffffffffffffffffffffffffffffffff168273ffffffffffffffffffffffffffffffffffffffff1603610e575760006040517fec442f05000000000000000000000000000000000000000000000000000000008152600401610e4e9190611813565b60405180910390fd5b610e63600083836110c0565b5050565b600073ffffffffffffffffffffffffffffffffffffffff168273ffffffffffffffffffffffffffffffffffffffff1603610ed95760006040517f96c6fd1e000000000000000000000000000000000000000000000000000000008152600401610ed09190611813565b60405180910390fd5b610ee5826000836110c0565b5050565b600073ffffffffffffffffffffffffffffffffffffffff168473ffffffffffffffffffffffffffffffffffffffff1603610f5b5760006040517fe602df05000000000000000000000000000000000000000000000000000000008152600401610f529190611813565b60405180910390fd5b600073ffffffffffffffffffffffffffffffffffffffff168373ffffffffffffffffffffffffffffffffffffffff1603610fcd5760006040517f94280d62000000000000000000000000000000000000000000000000000000008152600401610fc49190611813565b60405180910390fd5b81600260008673ffffffffffffffffffffffffffffffffffffffff1673ffffffffffffffffffffffffffffffffffffffff16815260200190815260200160002060008573ffffffffffffffffffffffffffffffffffffffff1673ffffffffffffffffffffffffffffffffffffffff1681526020019081526020016000208190555080156110ba578273ffffffffffffffffffffffffffffffffffffffff168473ffffffffffffffffffffffffffffffffffffffff167f8c5be1e5ebec7d5bd14f71427d1e84f3dd0314c0f7b2291e5b200ac8c7c3b925846040516110b1919061158e565b60405180910390a35b50505050565b600073ffffffffffffffffffffffffffffffffffffffff168373ffffffffffffffffffffffffffffffffffffffff1603611112578060036000828254611106919061185d565b925050819055506111e7565b6000600160008573ffffffffffffffffffffffffffffffffffffffff1673ffffffffffffffffffffffffffffffffffffffff1681526020019081526020016000205490508181101561119f578381836040517fe450d38c000000000000000000000000000000000000000000000000000000008152600401611196939291906117dc565b60405180910390fd5b818103600160008673ffffffffffffffffffffffffffffffffffffffff1673ffffffffffffffffffffffffffffffffffffffff16815260200190815260200160002081905550505b600073ffffffffffffffffffffffffffffffffffffffff168273ffffffffffffffffffffffffffffffffffffffff1603611230578060036000828254039250508190555061127e565b80600160008473ffffffffffffffffffffffffffffffffffffffff1673ffffffffffffffffffffffffffffffffffffffff168152602001908152602001600020600082825401925050819055505b8173ffffffffffffffffffffffffffffffffffffffff168373ffffffffffffffffffffffffffffffffffffffff167fddf252ad1be2c89b69c2b068fc378daa952ba7f163c4a11628f55a4df523b3ef836040516112db919061158e565b60405180910390a3505050565b6112f28282610729565b6113355780826040517fe2517d3f00000000000000000000000000000000000000000000000000000000815260040161132c929190611891565b60405180910390fd5b5050565b600080fd5b60007fffffffff0000000000000000000000000000000000000000000000000000000082169050919050565b6113738161133e565b811461137e57600080fd5b50565b6000813590506113908161136a565b92915050565b6000602082840312156113ac576113ab611339565b5b60006113ba84828501611381565b91505092915050565b60008115159050919050565b6113d8816113c3565b82525050565b60006020820190506113f360008301846113cf565b92915050565b600081519050919050565b600082825260208201905092915050565b60005b83811015611433578082015181840152602081019050611418565b60008484015250505050565b6000601f19601f8301169050919050565b600061145b826113f9565b6114658185611404565b9350611475818560208601611415565b61147e8161143f565b840191505092915050565b600060208201905081810360008301526114a38184611450565b905092915050565b600073ffffffffffffffffffffffffffffffffffffffff82169050919050565b60006114d6826114ab565b9050919050565b6114e6816114cb565b81146114f157600080fd5b50565b600081359050611503816114dd565b92915050565b6000819050919050565b61151c81611509565b811461152757600080fd5b50565b60008135905061153981611513565b92915050565b6000806040838503121561155657611555611339565b5b6000611564858286016114f4565b92505060206115758582860161152a565b9150509250929050565b61158881611509565b82525050565b60006020820190506115a3600083018461157f565b92915050565b6000806000606084860312156115c2576115c1611339565b5b60006115d0868287016114f4565b93505060206115e1868287016114f4565b92505060406115f28682870161152a565b9150509250925092565b6000819050919050565b61160f816115fc565b811461161a57600080fd5b50565b60008135905061162c81611606565b92915050565b60006020828403121561164857611647611339565b5b60006116568482850161161d565b91505092915050565b611668816115fc565b82525050565b6000602082019050611683600083018461165f565b92915050565b600080604083850312156116a05761169f611339565b5b60006116ae8582860161161d565b92505060206116bf858286016114f4565b9150509250929050565b600060ff82169050919050565b6116df816116c9565b82525050565b60006020820190506116fa60008301846116d6565b92915050565b60006020828403121561171657611715611339565b5b6000611724848285016114f4565b91505092915050565b6000806040838503121561174457611743611339565b5b6000611752858286016114f4565b9250506020611763858286016114f4565b9150509250929050565b7f4e487b7100000000000000000000000000000000000000000000000000000000600052602260045260246000fd5b600060028204905060018216806117b457607f821691505b6020821081036117c7576117c661176d565b5b50919050565b6117d6816114cb565b82525050565b60006060820190506117f160008301866117cd565b6117fe602083018561157f565b61180b604083018461157f565b949350505050565b600060208201905061182860008301846117cd565b92915050565b7f4e487b7100000000000000000000000000000000000000000000000000000000600052601160045260246000fd5b600061186882611509565b915061187383611509565b925082820190508082111561188b5761188a61182e565b5b92915050565b60006040820190506118a660008301856117cd565b6118b3602083018461165f565b939250505056fea26469706673582212209607586c37e4fa2deb70fd42643dfec65473c1dffe84bc7618635f3338765d6b64736f6c63430008140033","linkReferences":{}},"methodIdentifiers":{"BRIDGE_ROLE()":"b5bfddea","DEFAULT_ADMIN_ROLE()":"a217fddf","OWNER_ROLE()":"e58378bb","allowance(address,address)":"dd62ed3e","approve(address,uint256)":"095ea7b3","balanceOf(address)":"70a08231","burn(address,uint256)":"9dc29fac","decimals()":"313ce567","getRoleAdmin(bytes32)":"248a9ca3","giveBridgeRole(address)":"ee38acef","grantRole(bytes32,address)":"2f2ff15d","hasRole(bytes32,address)":"91d14854","mint(address,uint256)":"40c10f19","name()":"06fdde03","renounceRole(bytes32,address)":"36568abe","revokeRole(bytes32,address)":"d547741f","supportsInterface(bytes4)":"01ffc9a7","symbol()":"95d89b41","totalSupply()":"18160ddd","transfer(address,uint256)":"a9059cbb","transferFrom(address,address,uint256)":"23b872dd"},"id":15}